{
  "transactions": [
    {
      "hash": "0xcb0c2d5d3f270c150f8c5f06b388895e6f24cbdb99f0b6ec42812b808d8f1657",
      "transactionType": "CALL",
      "contractName": null,
      "contractAddress": "0xe754caf86b136c2a20fc3250e599b994c4829fc0",
      "function": "setToken(address)",
      "arguments": [
        "0xf5d7dAE350a1B569613665E4d398f649D2B510b2"
      ],
      "transaction": {
        "from": "0xb75d71adfc8e5f7c58ea89c22c3b70bea84a718d",
        "to": "0xe754caf86b136c2a20fc3250e599b994c4829fc0",
        "gas": "0x123b1",
        "value": "0x0",
        "input": "0x144fa6d7000000000000000000000000f5d7dae350a1b569613665e4d398f649d2b510b2",
        "nonce": "0x10",
        "chainId": "0xaa36a7"
      },
      "additionalContracts": [],
      "isFixedGasLimit": false
    },
    {
      "hash": "0xbc166a738e3d68d47b70f3f741ae8f9a43b559b017d505c3e984d0fac68f8a86",
      "transactionType": "CALL",
      "contractName": null,
      "contractAddress": "0xe754caf86b136c2a20fc3250e599b994c4829fc0",
      "function": "setLiquidityPool(address)",
      "arguments": [
        "0xcB240E7B5990C16139180cc2e354872d5AE2ecdA"
      ],
      "transaction": {
        "from": "0xb75d71adfc8e5f7c58ea89c22c3b70bea84a718d",
        "to": "0xe754caf86b136c2a20fc3250e599b994c4829fc0",
        "gas": "0x1133f",
        "value": "0x0",
        "input": "0x01877020000000000000000000000000cb240e7b5990c16139180cc2e354872d5ae2ecda",
        "nonce": "0x11",
        "chainId": "0xaa36a7"
      },
      "additionalContracts": [],
      "isFixedGasLimit": false
    },
    {
      "hash": "0x5d49d1102dbf863ca5107b20353127a74ef720f47206a905340135686c11187a",
      "transactionType": "CALL",
      "contractName": null,
      "contractAddress": "0xe754caf86b136c2a20fc3250e599b994c4829fc0",
      "function": "setMessenger(address)",
      "arguments": [
        "0x3E55dF49A38Caa5166E54c4D5d7320BfBB7f89c7"
      ],
      "transaction": {
        "from": "0xb75d71adfc8e5f7c58ea89c22c3b70bea84a718d",
        "to": "0xe754caf86b136c2a20fc3250e599b994c4829fc0",
        "gas": "0x1135c",
        "value": "0x0",
        "input": "0x662859670000000000000000000000003e55df49a38caa5166e54c4d5d7320bfbb7f89c7",
        "nonce": "0x12",
        "chainId": "0xaa36a7"
      },
      "additionalContracts": [],
      "isFixedGasLimit": false
    }
  ],
  "receipts": [
    {
      "status": "0x1",
      "cumulativeGasUsed": "0xaaf1f6",
      "logs": [],
      "logsBloom": "0x00000000000000000000000000000000000000000000000000000000000000000000000000000000000000000000000000000000000000000000000000000000000000000000000000000000000000000000000000000000000000000000000000000000000000000000000000000000000000000000000000000000000000000000000000000000000000000000000000000000000000000000000000000000000000000000000000000000000000000000000000000000000000000000000000000000000000000000000000000000000000000000000000000000000000000000000000000000000000000000000000000000000000000000000000000000",
      "type": "0x2",
      "transactionHash": "0xcb0c2d5d3f270c150f8c5f06b388895e6f24cbdb99f0b6ec42812b808d8f1657",
      "transactionIndex": "0x4e",
      "blockHash": "0xb56324987b4477feab6d983a040607ffd1541957b04022b082ccccff70938a68",
      "blockNumber": "0x64a4dc",
      "gasUsed": "0xc773",
      "effectiveGasPrice": "0x147c32cb7",
      "from": "0xb75d71adfc8e5f7c58ea89c22c3b70bea84a718d",
      "to": "0xe754caf86b136c2a20fc3250e599b994c4829fc0",
      "contractAddress": null
    },
    {
      "status": "0x1",
      "cumulativeGasUsed": "0xabb93d",
      "logs": [],
      "logsBloom": "0x00000000000000000000000000000000000000000000000000000000000000000000000000000000000000000000000000000000000000000000000000000000000000000000000000000000000000000000000000000000000000000000000000000000000000000000000000000000000000000000000000000000000000000000000000000000000000000000000000000000000000000000000000000000000000000000000000000000000000000000000000000000000000000000000000000000000000000000000000000000000000000000000000000000000000000000000000000000000000000000000000000000000000000000000000000000",
      "type": "0x2",
      "transactionHash": "0xbc166a738e3d68d47b70f3f741ae8f9a43b559b017d505c3e984d0fac68f8a86",
      "transactionIndex": "0x4f",
      "blockHash": "0xb56324987b4477feab6d983a040607ffd1541957b04022b082ccccff70938a68",
      "blockNumber": "0x64a4dc",
      "gasUsed": "0xc747",
      "effectiveGasPrice": "0x147c32cb7",
      "from": "0xb75d71adfc8e5f7c58ea89c22c3b70bea84a718d",
      "to": "0xe754caf86b136c2a20fc3250e599b994c4829fc0",
      "contractAddress": null
    },
    {
      "status": "0x1",
      "cumulativeGasUsed": "0xac8099",
      "logs": [],
      "logsBloom": "0x00000000000000000000000000000000000000000000000000000000000000000000000000000000000000000000000000000000000000000000000000000000000000000000000000000000000000000000000000000000000000000000000000000000000000000000000000000000000000000000000000000000000000000000000000000000000000000000000000000000000000000000000000000000000000000000000000000000000000000000000000000000000000000000000000000000000000000000000000000000000000000000000000000000000000000000000000000000000000000000000000000000000000000000000000000000",
      "type": "0x2",
      "transactionHash": "0x5d49d1102dbf863ca5107b20353127a74ef720f47206a905340135686c11187a",
      "transactionIndex": "0x50",
      "blockHash": "0xb56324987b4477feab6d983a040607ffd1541957b04022b082ccccff70938a68",
      "blockNumber": "0x64a4dc",
      "gasUsed": "0xc75c",
      "effectiveGasPrice": "0x147c32cb7",
      "from": "0xb75d71adfc8e5f7c58ea89c22c3b70bea84a718d",
      "to": "0xe754caf86b136c2a20fc3250e599b994c4829fc0",
      "contractAddress": null
    }
  ],
  "libraries": [],
  "pending": [],
  "returns": {},
  "timestamp": 1724961856,
  "chain": 11155111,
  "commit": "9de3c2a"
}